{
  "contractName": "Dex",
  "abi": [
    {
      "inputs": [],
      "stateMutability": "nonpayable",
      "type": "constructor"
    },
    {
      "anonymous": false,
      "inputs": [
        {
          "indexed": false,
          "internalType": "uint256",
          "name": "tradeId",
          "type": "uint256"
        },
        {
          "indexed": false,
          "internalType": "uint256",
          "name": "orderId",
          "type": "uint256"
        },
        {
          "indexed": true,
          "internalType": "bytes32",
          "name": "ticker",
          "type": "bytes32"
        },
        {
          "indexed": true,
          "internalType": "address",
          "name": "trader1",
          "type": "address"
        },
        {
          "indexed": true,
          "internalType": "address",
          "name": "trader2",
          "type": "address"
        },
        {
          "indexed": false,
          "internalType": "uint256",
          "name": "amount",
          "type": "uint256"
        },
        {
          "indexed": false,
          "internalType": "uint256",
          "name": "price",
          "type": "uint256"
        },
        {
          "indexed": false,
          "internalType": "uint256",
          "name": "date",
          "type": "uint256"
        }
      ],
      "name": "NewTrade",
      "type": "event"
    },
    {
      "inputs": [],
      "name": "nextOrderId",
      "outputs": [
        {
          "internalType": "uint256",
          "name": "",
          "type": "uint256"
        }
      ],
      "stateMutability": "view",
      "type": "function",
      "constant": true
    },
    {
      "inputs": [],
      "name": "nextTradeId",
      "outputs": [
        {
          "internalType": "uint256",
          "name": "",
          "type": "uint256"
        }
      ],
      "stateMutability": "view",
      "type": "function",
      "constant": true
    },
    {
      "inputs": [
        {
          "internalType": "uint256",
          "name": "",
          "type": "uint256"
        }
      ],
      "name": "tokenList",
      "outputs": [
        {
          "internalType": "bytes32",
          "name": "",
          "type": "bytes32"
        }
      ],
      "stateMutability": "view",
      "type": "function",
      "constant": true
    },
    {
      "inputs": [
        {
          "internalType": "bytes32",
          "name": "",
          "type": "bytes32"
        }
      ],
      "name": "tokens",
      "outputs": [
        {
          "internalType": "bytes32",
          "name": "ticker",
          "type": "bytes32"
        },
        {
          "internalType": "address",
          "name": "tokenAddress",
          "type": "address"
        }
      ],
      "stateMutability": "view",
      "type": "function",
      "constant": true
    },
    {
      "inputs": [
        {
          "internalType": "address",
          "name": "",
          "type": "address"
        },
        {
          "internalType": "bytes32",
          "name": "",
          "type": "bytes32"
        }
      ],
      "name": "traderBalances",
      "outputs": [
        {
          "internalType": "uint256",
          "name": "",
          "type": "uint256"
        }
      ],
      "stateMutability": "view",
      "type": "function",
      "constant": true
    },
    {
      "inputs": [
        {
          "internalType": "bytes32",
          "name": "ticker",
          "type": "bytes32"
        },
        {
          "internalType": "address",
          "name": "tokenAddress",
          "type": "address"
        }
      ],
      "name": "addToken",
      "outputs": [],
      "stateMutability": "nonpayable",
      "type": "function"
    },
    {
      "inputs": [
        {
          "internalType": "uint256",
          "name": "amount",
          "type": "uint256"
        },
        {
          "internalType": "bytes32",
          "name": "ticker",
          "type": "bytes32"
        }
      ],
      "name": "deposit",
      "outputs": [],
      "stateMutability": "nonpayable",
      "type": "function"
    },
    {
      "inputs": [
        {
          "internalType": "uint256",
          "name": "amount",
          "type": "uint256"
        },
        {
          "internalType": "bytes32",
          "name": "ticker",
          "type": "bytes32"
        }
      ],
      "name": "withdraw",
      "outputs": [],
      "stateMutability": "nonpayable",
      "type": "function"
    },
    {
      "inputs": [
        {
          "internalType": "enum Dex.Side",
          "name": "side",
          "type": "uint8"
        },
        {
          "internalType": "bytes32",
          "name": "ticker",
          "type": "bytes32"
        },
        {
          "internalType": "uint256",
          "name": "amount",
          "type": "uint256"
        },
        {
          "internalType": "uint256",
          "name": "price",
          "type": "uint256"
        }
      ],
      "name": "createLimitOrder",
      "outputs": [],
      "stateMutability": "nonpayable",
      "type": "function"
    },
    {
      "inputs": [
        {
          "internalType": "bytes32",
          "name": "ticker",
          "type": "bytes32"
        },
        {
          "internalType": "uint256",
          "name": "amount",
          "type": "uint256"
        },
        {
          "internalType": "enum Dex.Side",
          "name": "side",
          "type": "uint8"
        }
      ],
      "name": "createMarketOrder",
      "outputs": [],
      "stateMutability": "nonpayable",
      "type": "function"
    },
    {
      "inputs": [
        {
          "internalType": "bytes32",
          "name": "ticker",
          "type": "bytes32"
        },
        {
          "internalType": "enum Dex.Side",
          "name": "side",
          "type": "uint8"
        }
      ],
      "name": "getOrders",
      "outputs": [
        {
          "components": [
            {
              "internalType": "uint256",
              "name": "id",
              "type": "uint256"
            },
            {
              "internalType": "enum Dex.Side",
              "name": "side",
              "type": "uint8"
            },
            {
              "internalType": "address",
              "name": "trader",
              "type": "address"
            },
            {
              "internalType": "bytes32",
              "name": "ticker",
              "type": "bytes32"
            },
            {
              "internalType": "uint256",
              "name": "amount",
              "type": "uint256"
            },
            {
              "internalType": "uint256",
              "name": "filled",
              "type": "uint256"
            },
            {
              "internalType": "uint256",
              "name": "price",
              "type": "uint256"
            },
            {
              "internalType": "uint256",
              "name": "date",
              "type": "uint256"
            }
          ],
          "internalType": "struct Dex.Order[]",
          "name": "",
          "type": "tuple[]"
        }
      ],
      "stateMutability": "view",
      "type": "function",
      "constant": true
    },
    {
      "inputs": [],
      "name": "getTokens",
      "outputs": [
        {
          "components": [
            {
              "internalType": "bytes32",
              "name": "ticker",
              "type": "bytes32"
            },
            {
              "internalType": "address",
              "name": "tokenAddress",
              "type": "address"
            }
          ],
          "internalType": "struct Dex.Token[]",
          "name": "",
          "type": "tuple[]"
        }
      ],
      "stateMutability": "view",
      "type": "function",
      "constant": true
    }
  ],
  "bytecode": "0x608060405234801561001057600080fd5b5033600460006101000a81548173ffffffffffffffffffffffffffffffffffffffff021916908373ffffffffffffffffffffffffffffffffffffffff16021790555061320c806100616000396000f3fe608060405234801561001057600080fd5b50600436106100b45760003560e01c8063904194a311610071578063904194a31461018d5780639776aacf146101be5780639ead7222146101da578063a8d2021a1461020a578063aa6ca80814610226578063c9630cb014610244576100b4565b80632a58b330146100b957806346e9658b146100d75780636f3b62f91461010757806372ce957e146101235780637f2c624614610153578063813ad0831461016f575b600080fd5b6100c1610260565b6040516100ce9190612f95565b60405180910390f35b6100f160048036038101906100ec9190612884565b610266565b6040516100fe9190612e2d565b60405180910390f35b610121600480360381019061011c919061290f565b6103c0565b005b61013d600480360381019061013891906127ba565b610bdb565b60405161014a9190612f95565b60405180910390f35b61016d600480360381019061016891906128c0565b610c00565b005b610177611cc7565b6040516101849190612f95565b60405180910390f35b6101a760048036038101906101a2919061281f565b611ccd565b6040516101b5929190612e8c565b60405180910390f35b6101d860048036038101906101d39190612848565b611d11565b005b6101f460048036038101906101ef9190612972565b611e5f565b6040516102019190612e71565b60405180910390f35b610224600480360381019061021f919061299b565b611e83565b005b61022e61213b565b60405161023b9190612e4f565b60405180910390f35b61025e6004803603810190610259919061299b565b612276565b005b60055481565b606060036000848152602001908152602001600020600083600181111561028957fe5b600181111561029457fe5b8152602001908152602001600020805480602002602001604051908101604052809291908181526020016000905b828210156103b4578382906000526020600020906007020160405180610100016040529081600082015481526020016001820160009054906101000a900460ff16600181111561030e57fe5b600181111561031957fe5b81526020016001820160019054906101000a900473ffffffffffffffffffffffffffffffffffffffff1673ffffffffffffffffffffffffffffffffffffffff1673ffffffffffffffffffffffffffffffffffffffff16815260200160028201548152602001600382015481526020016004820154815260200160058201548152602001600682015481525050815260200190600101906102c2565b50505050905092915050565b82600073ffffffffffffffffffffffffffffffffffffffff1660008083815260200190815260200160002060010160009054906101000a900473ffffffffffffffffffffffffffffffffffffffff1673ffffffffffffffffffffffffffffffffffffffff161415610466576040517f08c379a000000000000000000000000000000000000000000000000000000000815260040161045d90612f35565b60405180910390fd5b837f44414900000000000000000000000000000000000000000000000000000000008114156104ca576040517f08c379a00000000000000000000000000000000000000000000000000000000081526004016104c190612eb5565b60405180910390fd5b6001808111156104d657fe5b8660018111156104e257fe5b14156105805783600260003373ffffffffffffffffffffffffffffffffffffffff1673ffffffffffffffffffffffffffffffffffffffff168152602001908152602001600020600087815260200190815260200160002054101561057b576040517f08c379a000000000000000000000000000000000000000000000000000000000815260040161057290612f75565b60405180910390fd5b610646565b610593848461249d90919063ffffffff16565b600260003373ffffffffffffffffffffffffffffffffffffffff1673ffffffffffffffffffffffffffffffffffffffff16815260200190815260200160002060007f44414900000000000000000000000000000000000000000000000000000000008152602001908152602001600020541015610645576040517f08c379a000000000000000000000000000000000000000000000000000000000815260040161063c90612ef5565b60405180910390fd5b5b600060036000878152602001908152602001600020600088600181111561066957fe5b600181111561067457fe5b815260200190815260200160002090508060405180610100016040528060055481526020018960018111156106a557fe5b81526020013373ffffffffffffffffffffffffffffffffffffffff168152602001888152602001878152602001600081526020018681526020014281525090806001815401808255809150506001900390600052602060002090600702016000909190919091506000820151816000015560208201518160010160006101000a81548160ff0219169083600181111561073a57fe5b021790555060408201518160010160016101000a81548173ffffffffffffffffffffffffffffffffffffffff021916908373ffffffffffffffffffffffffffffffffffffffff160217905550606082015181600201556080820151816003015560a0820151816004015560c0820151816005015560e0820151816006015550506000808280549050116107ce5760006107e7565b6107e66001838054905061252390919063ffffffff16565b5b90505b6000811115610bb5576001808111156107ff57fe5b88600181111561080b57fe5b148015610854575081600182038154811061082257fe5b90600052602060002090600702016005015482828154811061084057fe5b906000526020600020906007020160050154115b1561085e57610bb5565b6000600181111561086b57fe5b88600181111561087757fe5b1480156108c0575081600182038154811061088e57fe5b9060005260206000209060070201600501548282815481106108ac57fe5b906000526020600020906007020160050154105b156108ca57610bb5565b6108d26126b5565b8260018303815481106108e157fe5b906000526020600020906007020160405180610100016040529081600082015481526020016001820160009054906101000a900460ff16600181111561092357fe5b600181111561092e57fe5b81526020016001820160019054906101000a900473ffffffffffffffffffffffffffffffffffffffff1673ffffffffffffffffffffffffffffffffffffffff1673ffffffffffffffffffffffffffffffffffffffff1681526020016002820154815260200160038201548152602001600482015481526020016005820154815260200160068201548152505090508282815481106109c857fe5b90600052602060002090600702018360018403815481106109e557fe5b9060005260206000209060070201600082015481600001556001820160009054906101000a900460ff168160010160006101000a81548160ff02191690836001811115610a2e57fe5b02179055506001820160019054906101000a900473ffffffffffffffffffffffffffffffffffffffff168160010160016101000a81548173ffffffffffffffffffffffffffffffffffffffff021916908373ffffffffffffffffffffffffffffffffffffffff160217905550600282015481600201556003820154816003015560048201548160040155600582015481600501556006820154816006015590505080838381548110610adc57fe5b90600052602060002090600702016000820151816000015560208201518160010160006101000a81548160ff02191690836001811115610b1857fe5b021790555060408201518160010160016101000a81548173ffffffffffffffffffffffffffffffffffffffff021916908373ffffffffffffffffffffffffffffffffffffffff160217905550606082015181600201556080820151816003015560a0820151816004015560c0820151816005015560e08201518160060155905050610bad60018361252390919063ffffffff16565b9150506107ea565b610bcb600160055461256d90919063ffffffff16565b6005819055505050505050505050565b6002602052816000526040600020602052806000526040600020600091509150505481565b82600073ffffffffffffffffffffffffffffffffffffffff1660008083815260200190815260200160002060010160009054906101000a900473ffffffffffffffffffffffffffffffffffffffff1673ffffffffffffffffffffffffffffffffffffffff161415610ca6576040517f08c379a0000000000000000000000000000000000000000000000000000000008152600401610c9d90612f35565b60405180910390fd5b837f4441490000000000000000000000000000000000000000000000000000000000811415610d0a576040517f08c379a0000000000000000000000000000000000000000000000000000000008152600401610d0190612eb5565b60405180910390fd5b600180811115610d1657fe5b836001811115610d2257fe5b1415610dbc5783600260003373ffffffffffffffffffffffffffffffffffffffff1673ffffffffffffffffffffffffffffffffffffffff1681526020019081526020016000206000878152602001908152602001600020541015610dbb576040517f08c379a0000000000000000000000000000000000000000000000000000000008152600401610db290612f75565b60405180910390fd5b5b6000600360008781526020019081526020016000206000806001811115610ddf57fe5b866001811115610deb57fe5b14610df7576000610dfa565b60015b6001811115610e0557fe5b6001811115610e1057fe5b815260200190815260200160002090506000808690505b828054905082108015610e3a5750600081115b15611a96576000610e8e848481548110610e5057fe5b906000526020600020906007020160040154858581548110610e6e57fe5b90600052602060002090600702016003015461252390919063ffffffff16565b90506000818311610e9f5782610ea1565b815b9050610eb6818461252390919063ffffffff16565b9250610ee881868681548110610ec857fe5b90600052602060002090600702016004015461256d90919063ffffffff16565b858581548110610ef457fe5b9060005260206000209060070201600401819055503373ffffffffffffffffffffffffffffffffffffffff16858581548110610f2c57fe5b906000526020600020906007020160010160019054906101000a900473ffffffffffffffffffffffffffffffffffffffff1673ffffffffffffffffffffffffffffffffffffffff168b7fdb0c486e680ba8026643e6a85f8d157b5e7bcd4b32b54d564542570a9eb20416600654898981548110610fa557fe5b906000526020600020906007020160000154868b8b81548110610fc457fe5b90600052602060002090600702016005015442604051610fe8959493929190612fb0565b60405180910390a4600180811115610ffc57fe5b88600181111561100857fe5b14156114bd5761107181600260003373ffffffffffffffffffffffffffffffffffffffff1673ffffffffffffffffffffffffffffffffffffffff16815260200190815260200160002060008d81526020019081526020016000205461252390919063ffffffff16565b600260003373ffffffffffffffffffffffffffffffffffffffff1673ffffffffffffffffffffffffffffffffffffffff16815260200190815260200160002060008c8152602001908152602001600020819055506111776110f88686815481106110d757fe5b9060005260206000209060070201600501548361249d90919063ffffffff16565b600260003373ffffffffffffffffffffffffffffffffffffffff1673ffffffffffffffffffffffffffffffffffffffff16815260200190815260200160002060007f444149000000000000000000000000000000000000000000000000000000000081526020019081526020016000205461256d90919063ffffffff16565b600260003373ffffffffffffffffffffffffffffffffffffffff1673ffffffffffffffffffffffffffffffffffffffff16815260200190815260200160002060007f444149000000000000000000000000000000000000000000000000000000000081526020019081526020016000208190555061128b81600260008888815481106111ff57fe5b906000526020600020906007020160010160019054906101000a900473ffffffffffffffffffffffffffffffffffffffff1673ffffffffffffffffffffffffffffffffffffffff1673ffffffffffffffffffffffffffffffffffffffff16815260200190815260200160002060008d81526020019081526020016000205461256d90919063ffffffff16565b6002600087878154811061129b57fe5b906000526020600020906007020160010160019054906101000a900473ffffffffffffffffffffffffffffffffffffffff1673ffffffffffffffffffffffffffffffffffffffff1673ffffffffffffffffffffffffffffffffffffffff16815260200190815260200160002060008c81526020019081526020016000208190555061140b61134f86868154811061132e57fe5b9060005260206000209060070201600501548361249d90919063ffffffff16565b6002600088888154811061135f57fe5b906000526020600020906007020160010160019054906101000a900473ffffffffffffffffffffffffffffffffffffffff1673ffffffffffffffffffffffffffffffffffffffff1673ffffffffffffffffffffffffffffffffffffffff16815260200190815260200160002060007f444149000000000000000000000000000000000000000000000000000000000081526020019081526020016000205461252390919063ffffffff16565b6002600087878154811061141b57fe5b906000526020600020906007020160010160019054906101000a900473ffffffffffffffffffffffffffffffffffffffff1673ffffffffffffffffffffffffffffffffffffffff1673ffffffffffffffffffffffffffffffffffffffff16815260200190815260200160002060007f44414900000000000000000000000000000000000000000000000000000000008152602001908152602001600020819055505b600060018111156114ca57fe5b8860018111156114d657fe5b1415611a5d578484815481106114e857fe5b9060005260206000209060070201600501548102600260003373ffffffffffffffffffffffffffffffffffffffff1673ffffffffffffffffffffffffffffffffffffffff16815260200190815260200160002060007f444149000000000000000000000000000000000000000000000000000000000081526020019081526020016000205410156115ae576040517f08c379a00000000000000000000000000000000000000000000000000000000081526004016115a590612ed5565b60405180910390fd5b61161181600260003373ffffffffffffffffffffffffffffffffffffffff1673ffffffffffffffffffffffffffffffffffffffff16815260200190815260200160002060008d81526020019081526020016000205461256d90919063ffffffff16565b600260003373ffffffffffffffffffffffffffffffffffffffff1673ffffffffffffffffffffffffffffffffffffffff16815260200190815260200160002060008c81526020019081526020016000208190555061171761169886868154811061167757fe5b9060005260206000209060070201600501548361249d90919063ffffffff16565b600260003373ffffffffffffffffffffffffffffffffffffffff1673ffffffffffffffffffffffffffffffffffffffff16815260200190815260200160002060007f444149000000000000000000000000000000000000000000000000000000000081526020019081526020016000205461252390919063ffffffff16565b600260003373ffffffffffffffffffffffffffffffffffffffff1673ffffffffffffffffffffffffffffffffffffffff16815260200190815260200160002060007f444149000000000000000000000000000000000000000000000000000000000081526020019081526020016000208190555061182b816002600088888154811061179f57fe5b906000526020600020906007020160010160019054906101000a900473ffffffffffffffffffffffffffffffffffffffff1673ffffffffffffffffffffffffffffffffffffffff1673ffffffffffffffffffffffffffffffffffffffff16815260200190815260200160002060008d81526020019081526020016000205461252390919063ffffffff16565b6002600087878154811061183b57fe5b906000526020600020906007020160010160019054906101000a900473ffffffffffffffffffffffffffffffffffffffff1673ffffffffffffffffffffffffffffffffffffffff1673ffffffffffffffffffffffffffffffffffffffff16815260200190815260200160002060008c8152602001908152602001600020819055506119ab6118ef8686815481106118ce57fe5b9060005260206000209060070201600501548361249d90919063ffffffff16565b600260008888815481106118ff57fe5b906000526020600020906007020160010160019054906101000a900473ffffffffffffffffffffffffffffffffffffffff1673ffffffffffffffffffffffffffffffffffffffff1673ffffffffffffffffffffffffffffffffffffffff16815260200190815260200160002060007f444149000000000000000000000000000000000000000000000000000000000081526020019081526020016000205461256d90919063ffffffff16565b600260008787815481106119bb57fe5b906000526020600020906007020160010160019054906101000a900473ffffffffffffffffffffffffffffffffffffffff1673ffffffffffffffffffffffffffffffffffffffff1673ffffffffffffffffffffffffffffffffffffffff16815260200190815260200160002060007f44414900000000000000000000000000000000000000000000000000000000008152602001908152602001600020819055505b611a73600160065461256d90919063ffffffff16565b600681905550611a8d60018561256d90919063ffffffff16565b93505050610e27565b600091505b828054905082108015611ae75750828281548110611ab557fe5b906000526020600020906007020160030154838381548110611ad357fe5b906000526020600020906007020160040154145b15611cbd5760008290505b6001848054905003811015611c2157836001820181548110611b1057fe5b9060005260206000209060070201848281548110611b2a57fe5b9060005260206000209060070201600082015481600001556001820160009054906101000a900460ff168160010160006101000a81548160ff02191690836001811115611b7357fe5b02179055506001820160019054906101000a900473ffffffffffffffffffffffffffffffffffffffff168160010160016101000a81548173ffffffffffffffffffffffffffffffffffffffff021916908373ffffffffffffffffffffffffffffffffffffffff16021790555060028201548160020155600382015481600301556004820154816004015560058201548160050155600682015481600601559050508080600101915050611af2565b5082805480611c2c57fe5b60019003818190600052602060002090600702016000808201600090556001820160006101000a81549060ff02191690556001820160016101000a81549073ffffffffffffffffffffffffffffffffffffffff021916905560028201600090556003820160009055600482016000905560058201600090556006820160009055505090558180600101925050611a9b565b5050505050505050565b60065481565b60006020528060005260406000206000915090508060000154908060010160009054906101000a900473ffffffffffffffffffffffffffffffffffffffff16905082565b600460009054906101000a900473ffffffffffffffffffffffffffffffffffffffff1673ffffffffffffffffffffffffffffffffffffffff163373ffffffffffffffffffffffffffffffffffffffff1614611da1576040517f08c379a0000000000000000000000000000000000000000000000000000000008152600401611d9890612f15565b60405180910390fd5b60405180604001604052808381526020018273ffffffffffffffffffffffffffffffffffffffff168152506000808481526020019081526020016000206000820151816000015560208201518160010160006101000a81548173ffffffffffffffffffffffffffffffffffffffff021916908373ffffffffffffffffffffffffffffffffffffffff16021790555090505060018290806001815401808255809150506001900390600052602060002001600090919091909150555050565b60018181548110611e6f57600080fd5b906000526020600020016000915090505481565b80600073ffffffffffffffffffffffffffffffffffffffff1660008083815260200190815260200160002060010160009054906101000a900473ffffffffffffffffffffffffffffffffffffffff1673ffffffffffffffffffffffffffffffffffffffff161415611f29576040517f08c379a0000000000000000000000000000000000000000000000000000000008152600401611f2090612f35565b60405180910390fd5b82600260003373ffffffffffffffffffffffffffffffffffffffff1673ffffffffffffffffffffffffffffffffffffffff1681526020019081526020016000206000848152602001908152602001600020541015611fbc576040517f08c379a0000000000000000000000000000000000000000000000000000000008152600401611fb390612f55565b60405180910390fd5b60008083815260200190815260200160002060010160009054906101000a900473ffffffffffffffffffffffffffffffffffffffff1673ffffffffffffffffffffffffffffffffffffffff1663a9059cbb33856040518363ffffffff1660e01b815260040161202c929190612e04565b602060405180830381600087803b15801561204657600080fd5b505af115801561205a573d6000803e3d6000fd5b505050506040513d601f19601f8201168201806040525081019061207e91906127f6565b506120e283600260003373ffffffffffffffffffffffffffffffffffffffff1673ffffffffffffffffffffffffffffffffffffffff16815260200190815260200160002060008581526020019081526020016000205461252390919063ffffffff16565b600260003373ffffffffffffffffffffffffffffffffffffffff1673ffffffffffffffffffffffffffffffffffffffff168152602001908152602001600020600084815260200190815260200160002081905550505050565b60608060018054905067ffffffffffffffff8111801561215a57600080fd5b5060405190808252806020026020018201604052801561219457816020015b61218161271e565b8152602001906001900390816121795790505b50905060005b60018054905081101561226e576040518060400160405280600080600185815481106121c257fe5b90600052602060002001548152602001908152602001600020600001548152602001600080600185815481106121f457fe5b9060005260206000200154815260200190815260200160002060010160009054906101000a900473ffffffffffffffffffffffffffffffffffffffff1673ffffffffffffffffffffffffffffffffffffffff1681525082828151811061225657fe5b6020026020010181905250808060010191505061219a565b508091505090565b80600073ffffffffffffffffffffffffffffffffffffffff1660008083815260200190815260200160002060010160009054906101000a900473ffffffffffffffffffffffffffffffffffffffff1673ffffffffffffffffffffffffffffffffffffffff16141561231c576040517f08c379a000000000000000000000000000000000000000000000000000000000815260040161231390612f35565b60405180910390fd5b60008083815260200190815260200160002060010160009054906101000a900473ffffffffffffffffffffffffffffffffffffffff1673ffffffffffffffffffffffffffffffffffffffff166323b872dd3330866040518463ffffffff1660e01b815260040161238e93929190612dcd565b602060405180830381600087803b1580156123a857600080fd5b505af11580156123bc573d6000803e3d6000fd5b505050506040513d601f19601f820116820180604052508101906123e091906127f6565b5061244483600260003373ffffffffffffffffffffffffffffffffffffffff1673ffffffffffffffffffffffffffffffffffffffff16815260200190815260200160002060008581526020019081526020016000205461256d90919063ffffffff16565b600260003373ffffffffffffffffffffffffffffffffffffffff1673ffffffffffffffffffffffffffffffffffffffff168152602001908152602001600020600084815260200190815260200160002081905550505050565b6000808314156124b0576000905061251d565b60008284029050828482816124c157fe5b0414612518576040517f08c379a00000000000000000000000000000000000000000000000000000000081526004018080602001828103825260218152602001806131b66021913960400191505060405180910390fd5b809150505b92915050565b600061256583836040518060400160405280601e81526020017f536166654d6174683a207375627472616374696f6e206f766572666c6f7700008152506125f5565b905092915050565b6000808284019050838110156125eb576040517f08c379a000000000000000000000000000000000000000000000000000000000815260040180806020018281038252601b8152602001807f536166654d6174683a206164646974696f6e206f766572666c6f77000000000081525060200191505060405180910390fd5b8091505092915050565b60008383111582906126a2576040517f08c379a00000000000000000000000000000000000000000000000000000000081526004018080602001828103825283818151815260200191508051906020019080838360005b8381101561266757808201518184015260208101905061264c565b50505050905090810190601f1680156126945780820380516001836020036101000a031916815260200191505b509250505060405180910390fd5b5060008385039050809150509392505050565b60405180610100016040528060008152602001600060018111156126d557fe5b8152602001600073ffffffffffffffffffffffffffffffffffffffff16815260200160008019168152602001600081526020016000815260200160008152602001600081525090565b604051806040016040528060008019168152602001600073ffffffffffffffffffffffffffffffffffffffff1681525090565b60008135905061276081613149565b92915050565b60008151905061277581613160565b92915050565b60008135905061278a81613177565b92915050565b60008135905061279f8161318e565b92915050565b6000813590506127b48161319e565b92915050565b600080604083850312156127cd57600080fd5b60006127db85828601612751565b92505060206127ec8582860161277b565b9150509250929050565b60006020828403121561280857600080fd5b600061281684828501612766565b91505092915050565b60006020828403121561283157600080fd5b600061283f8482850161277b565b91505092915050565b6000806040838503121561285b57600080fd5b60006128698582860161277b565b925050602061287a85828601612751565b9150509250929050565b6000806040838503121561289757600080fd5b60006128a58582860161277b565b92505060206128b685828601612790565b9150509250929050565b6000806000606084860312156128d557600080fd5b60006128e38682870161277b565b93505060206128f4868287016127a5565b925050604061290586828701612790565b9150509250925092565b6000806000806080858703121561292557600080fd5b600061293387828801612790565b94505060206129448782880161277b565b9350506040612955878288016127a5565b9250506060612966878288016127a5565b91505092959194509250565b60006020828403121561298457600080fd5b6000612992848285016127a5565b91505092915050565b600080604083850312156129ae57600080fd5b60006129bc858286016127a5565b92505060206129cd8582860161277b565b9150509250929050565b60006129e38383612cde565b6101008301905092915050565b60006129fc8383612d80565b60408301905092915050565b612a11816130eb565b82525050565b612a2081613086565b82525050565b612a2f81613086565b82525050565b6000612a4082613023565b612a4a8185613053565b9350612a5583613003565b8060005b83811015612a86578151612a6d88826129d7565b9750612a7883613039565b925050600181019050612a59565b5085935050505092915050565b6000612a9e8261302e565b612aa88185613064565b9350612ab383613013565b8060005b83811015612ae4578151612acb88826129f0565b9750612ad683613046565b925050600181019050612ab7565b5085935050505092915050565b612afa816130a4565b82525050565b612b09816130a4565b82525050565b612b18816130fd565b82525050565b6000612b2b601083613075565b91507f63616e6e6f7420747261646520444149000000000000000000000000000000006000830152602082019050919050565b6000612b6b601983613075565b91507f4e6f7420656e6f7567682044414920696e2062616c616e6365000000000000006000830152602082019050919050565b6000612bab601483613075565b91507f4441492062616c616e636520746f6f206c6f772e0000000000000000000000006000830152602082019050919050565b6000612beb601f83613075565b91507f4163636573732072657374726963746564206f6e6c7920746f2061646d696e006000830152602082019050919050565b6000612c2b601983613075565b91507f7468697320746f6b656e20646f6573206e6f74206578697374000000000000006000830152602082019050919050565b6000612c6b601383613075565b91507f42616c616e6365206e6f7420656e6f7567682e000000000000000000000000006000830152602082019050919050565b6000612cab601c83613075565b91507f4e4f5420656e6f75676820746f6b656e20696e2062616c616e63652e000000006000830152602082019050919050565b61010082016000820151612cf56000850182612daf565b506020820151612d086020850182612b0f565b506040820151612d1b6040850182612a17565b506060820151612d2e6060850182612af1565b506080820151612d416080850182612daf565b5060a0820151612d5460a0850182612daf565b5060c0820151612d6760c0850182612daf565b5060e0820151612d7a60e0850182612daf565b50505050565b604082016000820151612d966000850182612af1565b506020820151612da96020850182612a17565b50505050565b612db8816130e1565b82525050565b612dc7816130e1565b82525050565b6000606082019050612de26000830186612a08565b612def6020830185612a26565b612dfc6040830184612dbe565b949350505050565b6000604082019050612e196000830185612a08565b612e266020830184612dbe565b9392505050565b60006020820190508181036000830152612e478184612a35565b905092915050565b60006020820190508181036000830152612e698184612a93565b905092915050565b6000602082019050612e866000830184612b00565b92915050565b6000604082019050612ea16000830185612b00565b612eae6020830184612a26565b9392505050565b60006020820190508181036000830152612ece81612b1e565b9050919050565b60006020820190508181036000830152612eee81612b5e565b9050919050565b60006020820190508181036000830152612f0e81612b9e565b9050919050565b60006020820190508181036000830152612f2e81612bde565b9050919050565b60006020820190508181036000830152612f4e81612c1e565b9050919050565b60006020820190508181036000830152612f6e81612c5e565b9050919050565b60006020820190508181036000830152612f8e81612c9e565b9050919050565b6000602082019050612faa6000830184612dbe565b92915050565b600060a082019050612fc56000830188612dbe565b612fd26020830187612dbe565b612fdf6040830186612dbe565b612fec6060830185612dbe565b612ff96080830184612dbe565b9695505050505050565b6000819050602082019050919050565b6000819050602082019050919050565b600081519050919050565b600081519050919050565b6000602082019050919050565b6000602082019050919050565b600082825260208201905092915050565b600082825260208201905092915050565b600082825260208201905092915050565b6000613091826130c1565b9050919050565b60008115159050919050565b6000819050919050565b60008190506130bc82613135565b919050565b600073ffffffffffffffffffffffffffffffffffffffff82169050919050565b6000819050919050565b60006130f68261310f565b9050919050565b6000613108826130ae565b9050919050565b600061311a82613121565b9050919050565b600061312c826130c1565b9050919050565bfe5b6002811061314657613145613133565b5b50565b61315281613086565b811461315d57600080fd5b50565b61316981613098565b811461317457600080fd5b50565b613180816130a4565b811461318b57600080fd5b50565b6002811061319b57600080fd5b50565b6131a7816130e1565b81146131b257600080fd5b5056fe536166654d6174683a206d756c7469706c69636174696f6e206f766572666c6f77a2646970667358221220df38d8e4cbf324211d835e2ec1477fd056a835670d5ea5b344a9d64d4cfa956464736f6c63430007040033",
  "immutableReferences": {},
  "source": "// SPDX-License-Identifier: MIT\npragma solidity >=0.4.22 <0.8.0;\npragma experimental ABIEncoderV2;\n\nimport \"../node_modules/@openzeppelin/contracts/token/ERC20/IERC20.sol\";\nimport \"../node_modules/@openzeppelin/contracts/math/SafeMath.sol\";\n\n/**\n * 1. build token registry to record all tokens used in DEX\n * 2. build the DEX wallet that keeps track of spent tokens and\n *   allow users to send and withdraw tokens.\n */\n\ncontract Dex {\n    using SafeMath for uint256;\n\n    // Token reggistry\n    struct Token {\n        bytes32 ticker;\n        address tokenAddress;\n    }\n    mapping(bytes32 => Token) public tokens;\n    bytes32[] public tokenList; \n\n    // Dex Wallet\n    mapping(address => mapping(bytes32 => uint256)) public traderBalances;\n\n    // Orders-\n    enum Side {BUY, SELL}\n\n    struct Order {\n        uint256 id;\n        Side side;\n        address trader;\n        bytes32 ticker;\n        uint256 amount;\n        uint256 filled;\n        uint256 price;\n        uint256 date;\n    }\n    // Order book\n    // buy orders sorted in decreasing order\n    // sell order sorted in increasing order\n    mapping(bytes32 => mapping(Side => Order[])) orderBook;\n\n    event NewTrade(\n        uint256 tradeId,\n        uint256 orderId,\n        bytes32 indexed ticker,\n        address indexed trader1,\n        address indexed trader2,\n        uint256 amount,\n        uint256 price,\n        uint256 date\n    );\n\n    address private admin;\n    bytes32 constant DAI = bytes32(\"DAI\");\n    uint256 public nextOrderId;\n    uint256 public nextTradeId;\n\n    constructor() {\n        admin = msg.sender;\n    }\n\n    modifier onlyAdmin() {\n        require(msg.sender == admin, \"Access restricted only to admin\");\n        _;\n    }\n\n    modifier tokenExists(bytes32 ticker) {\n        require(\n            tokens[ticker].tokenAddress != address(0),\n            \"this token does not exist\"\n        );\n        _;\n    }\n\n    modifier tokenIsNotDai(bytes32 ticker) {\n        require(ticker != DAI, \"cannot trade DAI\");\n        _;\n    }\n\n    function addToken(bytes32 ticker, address tokenAddress) external onlyAdmin {\n        tokens[ticker] = Token(ticker, tokenAddress);\n        tokenList.push(ticker);\n    }\n\n    function deposit(uint256 amount, bytes32 ticker)\n        external\n        tokenExists(ticker)\n    {\n        IERC20(tokens[ticker].tokenAddress).transferFrom(\n            msg.sender,\n            address(this),\n            amount\n        );\n        traderBalances[msg.sender][ticker] = traderBalances[msg.sender][ticker]\n            .add(amount);\n    }\n\n    function withdraw(uint256 amount, bytes32 ticker)\n        external\n        tokenExists(ticker)\n    {\n        require(\n            traderBalances[msg.sender][ticker] >= amount,\n            \"Balance not enough.\"\n        );\n        IERC20(tokens[ticker].tokenAddress).transfer(msg.sender, amount);\n        traderBalances[msg.sender][ticker] = traderBalances[msg.sender][ticker]\n            .sub(amount);\n    }\n\n    // if BUY user should have enough balance\n    // if SELL user should have the amount to sell from the ticker\n    function createLimitOrder(\n        Side side,\n        bytes32 ticker,\n        uint256 amount,\n        uint256 price\n    ) external tokenExists(ticker) tokenIsNotDai(ticker) {\n        if (side == Side.SELL) {\n            require(\n                traderBalances[msg.sender][ticker] >= amount,\n                \"NOT enough token in balance.\"\n            );\n        } else {\n            require(\n                traderBalances[msg.sender][DAI] >= price.mul(amount),\n                \"DAI balance too low.\"\n            );\n        }\n        Order[] storage orders = orderBook[ticker][side];\n        orders.push(\n            Order(\n                nextOrderId,\n                side,\n                msg.sender,\n                ticker,\n                amount,\n                0,\n                price,\n                block.timestamp\n            )\n        );\n        // sort the array\n        // if SELL ascendant - IF BUY descendant\n        uint256 i = (orders.length > 0) ? orders.length.sub(1) : 0;\n        while (i > 0) {\n            if (side == Side.SELL && orders[i].price > orders[i - 1].price)\n                break;\n            if (side == Side.BUY && orders[i].price < orders[i - 1].price)\n                break;\n            Order memory temp = orders[i - 1];\n            orders[i - 1] = orders[i];\n            orders[i] = temp;\n            i = i.sub(1);\n        }\n        nextOrderId = nextOrderId.add(1);\n    }\n\n    // scan the order book to match the market order\n    // with limit orders that can best fill the order\n    function createMarketOrder(\n        bytes32 ticker,\n        uint256 amount,\n        Side side\n    ) external tokenExists(ticker) tokenIsNotDai(ticker) {\n        if (side == Side.SELL) {\n            require(\n                traderBalances[msg.sender][ticker] >= amount,\n                \"NOT enough token in balance.\"\n            );\n        }\n        Order[] storage orders =\n            orderBook[ticker][side == Side.BUY ? Side.SELL : Side.BUY];\n        uint256 i;\n        uint256 remaining = amount; //how much tokens remaining in the market order\n        // Matching algorithm -- while the order is not completely filled\n        while (i < orders.length && remaining > 0) {\n            uint256 available = orders[i].amount.sub(orders[i].filled);\n            uint256 matched = (remaining > available) ? available : remaining;\n            remaining = remaining.sub(matched);\n            orders[i].filled = orders[i].filled.add(matched);\n            emit NewTrade(\n                nextTradeId,\n                orders[i].id,\n                ticker,\n                orders[i].trader,\n                msg.sender,\n                matched,\n                orders[i].price,\n                block.timestamp\n            );\n            //update the token balance for the two traders\n            // If buy market order == BUY -> decrease trader 2 and increase trader 1\n            // If sell market order == SELL -> increase trader 2 and decrease trader 1\n            if (side == Side.SELL) {\n                traderBalances[msg.sender][ticker] = traderBalances[msg.sender][\n                    ticker\n                ]\n                    .sub(matched);\n                traderBalances[msg.sender][DAI] = traderBalances[msg.sender][\n                    DAI\n                ]\n                    .add(matched.mul(orders[i].price));\n                traderBalances[orders[i].trader][ticker] = traderBalances[\n                    orders[i].trader\n                ][ticker]\n                    .add(matched);\n                traderBalances[orders[i].trader][DAI] = traderBalances[\n                    orders[i].trader\n                ][DAI]\n                    .sub(matched.mul(orders[i].price));\n            }\n            if (side == Side.BUY) {\n                require(\n                    traderBalances[msg.sender][DAI] >=\n                        matched * orders[i].price,\n                    \"Not enough DAI in balance\"\n                );\n                traderBalances[msg.sender][ticker] = traderBalances[msg.sender][\n                    ticker\n                ]\n                    .add(matched);\n                traderBalances[msg.sender][DAI] = traderBalances[msg.sender][\n                    DAI\n                ]\n                    .sub(matched.mul(orders[i].price));\n                traderBalances[orders[i].trader][ticker] = traderBalances[\n                    orders[i].trader\n                ][ticker]\n                    .sub(matched);\n                traderBalances[orders[i].trader][DAI] = traderBalances[\n                    orders[i].trader\n                ][DAI]\n                    .add(matched.mul(orders[i].price));\n            }\n            nextTradeId = nextTradeId.add(1);\n            i = i.add(1);\n        }\n        // clear the order book from the filled orders\n        // delete filled order by shifting the remaining orders\n        i = 0;\n        while (i < orders.length && orders[i].filled == orders[i].amount) {\n            for (uint256 j = i; j < orders.length - 1; j++) {\n                orders[j] = orders[j + 1];\n            }\n            orders.pop();\n            i++;\n        }\n    }\n\n    function getOrders(bytes32 ticker, Side side)\n        external\n        view\n        returns (Order[] memory)\n    {\n        return orderBook[ticker][side];\n    }\n\n    function getTokens() external view returns (Token[] memory) {\n        Token[] memory _tokens = new Token[](tokenList.length);\n        for (uint256 i = 0; i < tokenList.length; i++) {\n            _tokens[i] = Token(\n                tokens[tokenList[i]].ticker,\n                tokens[tokenList[i]].tokenAddress\n            );\n        }\n        return _tokens;\n    }\n}\n",
  "sourcePath": "/home/wissal/Documents/dev-workspace/solidity/eatTheBlocks/dex-3/contracts/Dex.sol",
  "compiler": {
    "name": "solc",
    "version": "0.7.4+commit.3f05b770.Emscripten.clang"
  },
  "schemaVersion": "3.3.1",
  "updatedAt": "2021-03-08T10:33:20.238Z",
  "networkType": "ethereum",
  "devdoc": {
    "kind": "dev",
    "methods": {},
    "version": 1
  },
  "userdoc": {
    "kind": "user",
    "methods": {},
    "notice": "1. build token registry to record all tokens used in DEX 2. build the DEX wallet that keeps track of spent tokens and   allow users to send and withdraw tokens.",
    "version": 1
  }
}